:0400000080314428DF
:100008007E14803120007F08F1000B1D01007A3535
:10001800563E86008701010820009F001708803A95
:10002800F0006308803A7002031D1C28620816025B
:1000380003182B28200061087B06031D252860086B
:100048007A06031D2B280A30DE070030DF3D913188
:10005800B62180310130FA070030FB3D7B08803A39
:10006800F00080307002031D3B2804307A02031C24
:100078003F28FA01FB0171082000FF007E100900EB
:100088008031462891317D218031E00091317E21F7
:100098008031E10091317F218031E200913180216E
:1000A800E300FA01FB01D601D701D801D901DA0131
:1000B800DB01DC01DD01DE01DF017E10200088317B
:1000C80077289131E0218031F601F60A0C3092311F
:1000D8000422803107302000BA003A08F6000B30BD
:1000E8009231042280310F302000BA003A08F6001D
:1000F8000A30923104228031F6010930923104220B
:100108008031F6010F309231042280317930F800C5
:100118009B30F9009231A12280319131D721803171
:100128007130F8009B30F9009231A1228031913171
:10013800D72180316930F8009B30F9009231A12233
:1001480080319131D72180316130F8009B30F9003E
:100158009231A12280319131D72180315930F80074
:100168009B30F9009231A1228031FD302000B3008C
:100178009F30B4009231382280319131D7218031BB
:100188005130F8009B30F9009231A1228031913131
:10019800D72180314930F8009B30F9009231A122F3
:1001A80080319131D721803192314E228031923184
:1001B8004E22803192314E22803192314E2280314E
:1001C80092314E22803192314E2280314130F800F6
:1001D8009B30F9009231A122803191317521803113
:1001E8009131D72180313930F8009B30F9009231B4
:1001F800A12280319131962180319131D7218031EE
:100208003130F8009B30F9009231A12280319131D0
:10021800752180319131D72180312930F8009B3008
:10022800F9009231A12280319131962180319131AA
:10023800D72180312130F8009B30F9009231A1227A
:1002480080319131752180319131D7218031193038
:10025800F8009B30F9009231A1228031913196212A
:1002680080319131D72180311130F8009B30F9006D
:100278009231A12280319131752180319131D7217C
:1002880080310930F8009B30F9009231A122803189
:100298009131902180319131D72180310130F8009E
:1002A8009B30F9009231A122803191319C2180311B
:1002B8009131D7218031F930F8009A30F900923124
:1002C800A12280319131902180319131D721803123
:1002D800F130F8009A30F9009231A1228031913141
:1002E8009C2180319131D7218031E930F8009A3052
:1002F800F9009231A12280319131902180319131E0
:10030800D7218031E130F8009A30F9009231A122EA
:1003180080319131D721803192314E228031923112
:100328004E22803192314E228031D930F8009A30F5
:10033800F9009231A12280319131752180319131BA
:10034800D7218031D130F8009A30F9009231A122BA
:1003580080319131962180319131D7218031C93056
:10036800F8009A30F9009231A1228031913175213B
:1003780080319131D7218031C130F8009A30F900AD
:100388009231A12280319131962180319131D7214A
:100398008031B930F8009A30F9009231A1228031C9
:1003A8009131752180319131D7218031B130F800F8
:1003B8009A30F9009231A122803191319621803111
:1003C8009131D7218031A930F8009A30F900923163
:1003D800A12280319131752180319131D72180312D
:1003E800A130F8009A30F9009231A1228031913180
:1003F800902180319131D72180319930F8009A309D
:10040800F9009231A122803191319C2180319131C2
:10041800D72180319130F8009A30F9009231A12229
:1004280080319131902180319131D72180318930CB
:10043800F8009A30F9009231A122803191319C2143
:1004480080319131D72180318130F8009A30F9001C
:100458009231A12280319131902180319131D7217F
:1004680080317930F8009A30F9009231A122803138
:100478009131A22180319131D72180317130F8003A
:100488009A30F9009231A122803191319021803146
:100498009131D72180316930F8009A30F9009231D2
:1004A800A12280319131D72180316130F8009A3012
:1004B800F9009231A1228031913175218031913139
:1004C800D72180315930F8009A30F9009231A122B1
:1004D80080319131902180319131D7218031513053
:1004E800F8009A30F9009231A12280319131962199
:1004F80080319131D7218031933167238031933115
:10050800672380314930F8009A30F9009231A122EE
:1005180080319131902180319131D7218031413022
:10052800F8009A30F9009231A12280319131752179
:1005380080319131D72180313930F8009A30F90073
:100548009231A12280319131902180319131D7218E
:1005580080313130F8009A30F9009231A12280318F
:100568009131962180319131D72180312930F8009D
:100578009A30F9009231A122803191319021803155
:100588009131D72180312130F8009A30F900923129
:10059800A12280319131752180319131D72180316B
:1005A8001930F8009A30F9009231A1228031913146
:1005B800902180319131D72180311130F8009A3063
:1005C800F9009231A122803191319C218031913101
:1005D800D72180310930F8009A30F9009231A122F0
:1005E80080319131902180319131D7218031013092
:1005F800F8009A30F9009231A122803191319C2182
:1006080080319131D7218031F930F8009930F900E3
:100618009231A12280319131902180319131D721BD
:100628008031F130F8009930F9009231A1228031FF
:100638009131D7218031E930F8009930F9009231B1
:10064800A12280319131752180319131D7218031BA
:10065800E130F8009930F9009231A12280319131CE
:10066800902180319131D7218031D930F8009930EB
:10067800F9009231A1228031913196218031913156
:10068800D7218031933167238031D130F8009930F8
:10069800F9009231A122803191319021803191313C
:1006A800D7218031C930F8009930F9009231A12260
:1006B80080319131752180319131D7218031C1301C
:1006C800F8009930F9009231A122803191319021BE
:1006D80080319131D7218031B930F8009930F90053
:1006E8009231A12280319131962180319131D721E7
:1006F8008031B130F8009930F9009231A12280316F
:100708009131902180319131D7218031A930F80081
:100718009930F9009231A1228031913175218031CF
:100728009131D7218031A130F8009930F900923108
:10073800A12280319131902180319131D7218031AE
:100748009930F8009930F9009231A1228031913125
:100758009C2180319131D72180319130F800993036
:10076800F9009231A122803191319021803191316B
:10077800D72180318930F8009930F9009231A122CF
:10078800803191319C2180319131D7218031813064
:10079800F8009930F9009231A122803191319021ED
:1007A80080319131D72180317930F8009930F900C2
:1007B8009231A12280319131A22180319131D7210A
:1007C80080317130F8009930F9009231A1228031DE
:1007D8009131902180319131D72180316930F800F1
:1007E8009930F9009231A12280319131D72180319D
:1007F8006130F8009930F9009231A12280319131AD
:100808009C2180319131D72180315930F8009930BD
:10081800F9009231A12280319131962180319131B4
:10082800D72180315130F8009930F9009231A12256
:1008380080319131752180319131D7218031493012
:10084800F8009930F9009231A12280319131962136
:1008580080319131D72180314130F8009930F90049
:100868009231A122803191319C2180319131D7215F
:1008780080313930F8009930F9009231A122803165
:100888009131A22180319131D72180313130F80066
:100898009930F9009231A122803191319C21803127
:1008A8009131D72180312930F8009930F9009231FF
:1008B800A12280319131962180319131D721803127
:1008C8002130F8009930F9009231A122803191311C
:1008D800902180319131D72180311930F800993039
:1008E800F9009231A12280319131D7218031113024
:1008F800F8009930F9009231A12280319131A2217A
:1009080080319131D72180310930F8009930F900D0
:100918009231A12280319131D72180310130F80004
:100928009930F9009231A1228031913190218031A2
:100938009131D7218031F930F8009830F90092319F
:10094800A12280319131D7218031F130F8009830DF
:10095800F9009231A12280319131D7218031E930DB
:10096800F8009830F9009231A122803191319C2110
:1009780080319131D7218031E130F8009830F90089
:100988009231A12280319131902180319131D7214A
:100998008031D930F8009830F9009231A1228031A5
:1009A80091319C2180319131D7218031D130F800AB
:1009B8009830F9009231A122803191319021803113
:1009C8009131D7218031C930F8009830F90092313F
:1009D800A12280319131D7218031C130F80098307F
:1009E800F9009231A12280319131D7218031B9307B
:1009F800F8009830F9009231A12280319131D72145
:100A08008031B130F8009830F9009231A12280315C
:100A18009131D7218031A930F8009830F90092310E
:100A2800A12280319131962180319131D7218031B5
:100A3800A130F8009830F9009231A122803191312B
:100A4800902180319131D72180319930F800983048
:100A5800F9009231A1228031913196218031913172
:100A6800D72180319130F8009830F9009231A122D5
:100A780080319131902180319131D7218031893075
:100A8800F8009830F9009231A12280319131752116
:100A980080319131D72180318130F8009830F900C8
:100AA8009231A12280319131902180319131EC2114
:100AB8000800B130F8009F30F9009231A122853149
:100AC8009131902185319131CE218531A930F800BD
:100AD8009F30F9009231A12285319131CE218531A3
:100AE800A130F8009F30F9009231A122853191316F
:100AF8009C2185319131CE2185319930F8009F3084
:100B0800F9009231A12285319131902185319131BD
:100B1800CE2185319130F8009F30F9009231A12221
:100B280085319131CE2185318930F8009F30F90027
:100B38009231A122853191319C2185319131CE218B
:100B480085318130F8009F30F9009231A12285313A
:100B58009131902185319131CE2185317930F8005C
:100B68009F30F9009231A12285319131CE21853112
:100B78007130F8009F30F9009231A122853191310E
:100B8800CE2185316930F8009F30F9009231A122D9
:100B9800853191319C2185319131CE21853161306A
:100BA800F8009F30F9009231A122853191319021CE
:100BB80085319131CE2185315930F8009F30F900C7
:100BC8009231A12285319131CE2185315130F80001
:100BD8009F30F9009231A12285319131CE218531A2
:100BE8004930F8009F30F9009231A12285319131C6
:100BF8009C2185319131CE2185314130F8009F30DB
:100C0800F9009231A12285319131902185319131BC
:100C1800CE2185313930F8009F30F9009231A12278
:100C280085319131CE2185313130F8009F30F9007E
:100C38009231A122853191319C2185319131CE218A
:100C480085312930F8009F30F9009231A122853191
:100C58009131902185319131CE2185312130F800B3
:100C68009F30F9009231A12285319131CE21853111
:100C78001930F8009F30F9009231A1228531913165
:100C88009C2185319131CE2185311130F8009F307A
:100C9800F9009231A122853191319021853191312C
:100CA800CE2185310930F8009F30F9009231A12218
:100CB80085319131CE2185310130F8009F30F9001E
:100CC8009231A12285319131962185319131CE2100
:100CD8008531F930F8009E30F9009231A122853132
:100CE8009131902185319131CE218531F130F80053
:100CF8009E30F9009231A12285319131CE21853182
:100D0800E930F8009E30F9009231A1228531913105
:100D18009C2185319131CE218531E130F8009E301A
:100D2800F9009231A122853191319021853191319B
:100D3800CE218531D930F8009E30F9009231A122B8
:100D480085319131CE218531D130F8009E30F900BE
:100D58009231A122853191319C2185319131CE2169
:100D68008531C930F8009E30F9009231A1228531D1
:100D78009131902185319131CE218531C130F800F2
:100D88009E30F9009231A12285319131CE218531F1
:100D9800B930F8009E30F9009231A12285319131A5
:100DA800CE218531B130F8009E30F9009231A12270
:100DB800853191319C2185319131CE218531A93000
:100DC800F8009E30F9009231A122853191319021AD
:100DD80085319131CE218531A130F8009E30F9005E
:100DE8009231A12285319131CE2185319930F80097
:100DF8009E30F9009231A12285319131CE21853181
:100E08009130F8009E30F9009231A122853191315C
:100E18009C2185319131CE210800B030F800903006
:100E2800F9009231A1228731913190218731913196
:100E3800EC218731A830F8009030F9009231A122D6
:100E480087319131752187319131EC218731A0307B
:100E5800F8009030F9009231A12287319131902128
:100E680087319131EC2187319830F8009030F900C2
:100E78009231A12287319131752187319131EC214D
:100E880087319030F8009030F9009231A1228731F3
:100E98009131902187319131EC2187318830F800E8
:100EA8009030F9009231A122873191319621873112
:100EB8009131EC2187318030F8009030F90092317F
:100EC800A122873191319C2187319131EC218731E1
:100ED8007830F8009030F9009231A12287319131B1
:100EE800752187319131EC2187317030F8009030CD
:100EF800F9009231A12287319131902187319131C6
:100F0800EC2187316830F8009030F9009231A12245
:100F180087319131752187319131EC2187316030EA
:100F2800F8009030F9009231A12287319131902157
:100F380087319131EC2187315830F8009030F90031
:100F48009231A12287319131752187319131EC217C
:100F580087315030F8009030F9009231A122873162
:100F68009131A22187319131EC2187314830F80045
:100F78009030F9009231A12287319131EC218731EB
:100F88004030F8009030F9009231A1228731913138
:100F9800EC2108009131E0218731F601F60A0C3086
:100FA80092310422873107302000BA003A08F6004F
:100FB8000B309231042287310F302000BA003A08F2
:100FC800F6000A30923104228731F6010930923155
:100FD80004228731F6010F3092310422873196318D
:100FE800DB2687318731112787319531562587319F
:060FF80088310F20080003
:10100000F4007435F3007308F5007208F3007308F8
:10101000F5079131BE217508240091000800F130D8
:10102000F8009F30F9009231A12288319131752169
:1010300088319131EC218831E930F8009F30F90096
:101040009231A12288319131902188319131EC2166
:101050008831E130F8009F30F9009231A1228831C7
:1010600091319C2188319131EC218831D930F800BF
:101070009F30F9009231A122883191319621883137
:101080009131EC218831D130F8009F30F900923154
:10109000A12288319131752188319131EC2188313B
:1010A000C930F8009F30F9009231A1228831913186
:1010B000902188319131EC218831C130F8009F3086
:1010C000F9009231A1228831913175218831913115
:1010D000EC218831B930F8009F30F9009231A1221B
:1010E00088319131902188319131EC210800913182
:1010F000792188319231112288318C3020009E0074
:101100000430D6000030D7000530D8000030D900B8
:101110000930DA000030DB000330DC000030DD0095
:101120009231222288319131C6218831403020000D
:10113000BD003D08BF00C03021009E006A3099000C
:101140008C0120008C01073021008D0023008D01CF
:1011500022008C160C150E179131F821883127309A
:101160009431152488312000A001A00A2730933142
:101170009B2388312000A00127309331D62388316A
:1011800008302000B3009830B400403092318422FF
:10119000883140302000BD003D08A0001030BE0066
:1011A0003E08A10027309431FB24883140302000D4
:1011B000BD003D08A00027309331D6238831383058
:1011C0002000B3009830B40040309231842288313E
:1011D00040302000BD003D08A0000C30BE003E089D
:1011E000A10027309431FB24883120008D1F022973
:1011F0000D302000BD00FB30890BFC28BD0BFC2806
:101200000032F52802302000BE008630BD00993043
:10121000890B0829BD0B0829BE0B08292000A00155
:10122000A00A273093319B2388312000A00127306A
:101230009331D623883119302000B3009830B400A0
:10124000403092318422883140302000BD003D087A
:10125000A0000F30BE003E08A10027309431FB24CF
:10126000883140302000BD003D08A0002730933178
:10127000D623883132302000B3009830B40040309B
:1012800092318422883140302000BD003D08A0000A
:101290000530BE003E08A10027309431FB24883180
:1012A00001302000D4000030D5001D3021009D0009
:1012B0000D302000BD00FB30890B5C29BD0B5C2983
:1012C000003221009D149D1863291C082000D100C4
:1012D00021001B082000D00000305102FA30031911
:1012E000500203181B2A54035504031DC629A001EC
:1012F000A00A273093319B2388312000A00127309A
:101300009331D623883119302000B3009830B400CF
:10131000403092318422883140302000BD003D08A9
:10132000A0000F30BE003E08A10027309431FB24FE
:10133000883140302000BD003D08A00027309331A7
:10134000D623883165302000B3009830B400403097
:1013500092318422883140302000BD003D08A00039
:101360000930BE003E08A10027309431FB248831AB
:1013700003302000BE008A30BD005530890BBE29E5
:10138000BD0BBE29BE0BBE290032CA2A023054064C
:101390005504031DCF2AA001A00A273093319B23B7
:1013A00088312000A00127309331D62388311930AD
:1013B0002000B3009830B40040309231842288314C
:1013C00040302000BD003D08A0000F30BE003E08A8
:1013D000A10027309431FB24883140302000BD002B
:1013E0003D08A00027309331D623883129302000D2
:1013F000B3009830B40040309231842288314030BC
:101400002000BD003D08A0000E30BE003E08A10037
:1014100027309431FB24883103302000BE008A300D
:10142000BD005530890B122ABD0B122ABE0B122AA1
:1014300000320330CB2A02305102EF300319500240
:10144000031CCF2A023054065504031D772AA0013D
:10145000A00A273093319B2388312000A001273038
:101460009331D623883119302000B3009830B4006E
:10147000403092318422883140302000BD003D0848
:10148000A0000F30BE003E08A10027309431FB249D
:10149000883140302000BD003D08A0002730933146
:1014A000D623883132302000B3009830B400403069
:1014B00092318422883140302000BD003D08A000D8
:1014C0000530BE003E08A10027309431FB2488314E
:1014D00003302000BE008A30BD005530890B6E2AD3
:1014E000BD0B6E2ABE0B6E2A00320130CB2A0330B0
:1014F00054065504031DCF2AA001A00A27309331BA
:101500009B2388312000A00127309331D6238831D6
:1015100019302000B3009830B4004030923184225A
:10152000883140302000BD003D08A0000F30BE00D3
:101530003E08A10027309431FB2488314030200040
:10154000BD003D08A00027309331D6238831653097
:101550002000B3009830B4004030923184228831AA
:1015600040302000BD003D08A0000930BE003E080C
:10157000A10027309431FB24883103302000BE00C5
:101580008A30BD005530890BC32ABD0BC32ABE0B60
:10159000C32A003202302000D4000030D5008D1B59
:1015A0005529A001A00A273093319B2388312000C0
:1015B000A00127309331D623883145302000B30075
:1015C0009830B4004030923184228831403020007D
:1015D000BD003D08A0000B30BE003E08A100273032
:1015E0009431FB2488310B302000BE002630BD0032
:1015F0005D30890BF92ABD0BF92ABE0BF92A00329E
:101600002000A001A00A273093319B23883140306D
:101610002000BD003D08A00027309331D62388313B
:101620005B302000B3009830B40040309231842207
:10163000883140302000BD003D08A0000930BE00C8
:101640003E08A10027309431FB2488318B168B177C
:10165000200054035504031D312B8731CE278831D8
:10166000442B0230200054065504031D3B2B8B31C4
:10167000C3238831442B0330200054065504031D36
:10168000442B8031652088318B128B132000A00100
:10169000A00A273093319B2388312000A0012730F6
:1016A0009331D62388316F302000B3009830B400D6
:1016B0005F08B6005E08B500403092318422883160
:1016C00020005F08803ABD00A7303D02031D6A2B51
:1016D00010305E02031C6E2B0C30992B20005F082B
:1016E000803ABD0083303D02031D782BE8305E0256
:1016F000031C7C2B0B30992B20005F08803ABD0027
:1017000080303D02031D862B64305E02031C8A2B51
:101710000A30992B20005F08803ABD0080303D02DE
:10172000031D942B0A305E02031C982B0930992B61
:1017300008302000D2000030D3004030BD003D080A
:10174000A0005208BE003E08A10027309431FB24BF
:10175000883120008D1FB62B0D302000BD00FB30DE
:10176000890BB02BBD0BB02B0032A92B023020000F
:10177000BE008630BD009930890BBC2BBD0BBC2B45
:10178000BE0BBC2BB3289131E0218B31F601F60A58
:101790000C30923104228B3107302000BA003A0815
:1017A000F6000B30923104228B310F302000BA004A
:1017B0003A08F6000A30923104228B31F6010930E2
:1017C000923104228B31F6010F30923104228B3199
:1017D0004130F8009E30F9009231A1228B319131D5
:1017E000CE218B313930F8009E30F9009231A122A0
:1017F0008B319131CE218B313130F8009E30F900A0
:101800009231A1228B319131CE218B312930F800D8
:101810009E30F9009231A1228B319131CE218B3152
:101820002130F8009E30F9009231A1228B319131A4
:10183000CE218B311930F8009E30F9009231A1226F
:101840008B319131CE218B311130F8009E30F9006F
:101850009231A1228B31FB302000B3009F30B400C5
:10186000923138228B319131CE218B310930F80001
:101870009E30F9009231A1228B31913175218B314B
:101880009131CE218B3185315D258B310130F800CE
:101890009E30F9009231A1228B31913190218B3110
:1018A0009131CE218B31F930F8009D30F900923121
:1018B000A1228B319131CE218B31F130F8009D3056
:1018C000F9009231A1228B3191319C218B319131E0
:1018D000CE218B31E930F8009D30F9009231A12200
:1018E0008B31913190218B319131CE218B31E1308F
:1018F000F8009D30F9009231A1228B319131CE2137
:101900008B31D930F8009D30F9009231A1228B3112
:1019100091319C218B319131CE218B31D130F80026
:101920009D30F9009231A1228B31913190218B3180
:101930009131CE218B31C930F8009D30F9009231C0
:10194000A1228B319131CE218B31C130F8009D30F5
:10195000F9009231A1228B31913175218B31913176
:10196000CE218B31B930F8009D30F9009231A1229F
:101970008B31913190218B319131CE218B31B1302E
:10198000F8009D30F9009231A1228B319131CE21A6
:101990008B31A930F8009D30F9009231A1228B31B2
:1019A000913196218B319131CE218B31A130F800CC
:1019B0009D30F9009231A1228B31913190218B31F0
:1019C0009131CE218B319930F8009D30F900923160
:1019D000A1228B319131CE218B319130F8009D3095
:1019E000F9009231A1228B31913175218B319131E6
:1019F000CE218B318930F8009D30F9009231A1223F
:101A00008B31913190218B319131CE218B318130CD
:101A1000F8009D30F9009231A1228B319131CE2115
:101A20008B317930F8009D30F9009231A1228B3151
:101A3000913196218B319131CE218B3194315C24BF
:101A40008B3194315C248B3194315C248B31713037
:101A5000F8009D30F9009231A1228B319131902113
:101A60008B319131CE218B316930F8009D30F900F6
:101A70009231A1228B319131CE218B316130F8002E
:101A80009D30F9009231A1228B31913196218B3119
:101A90009131CE218B315930F8009D30F9009231CF
:101AA000A1228B31913190218B319131CE218B311B
:101AB0005130F8009D30F9009231A1228B319131E3
:101AC000CE218B314930F8009D30F9009231A122AE
:101AD0008B3191319C218B319131CE218B31413031
:101AE000F8009D30F9009231A1228B319131902183
:101AF0008B319131CE218B313930F8009D30F90096
:101B00009231A1228B319131CE218B313130F800CD
:101B10009D30F9009231A1228B31913175218B31A9
:101B20009131CE218B3185315D258B312930F80003
:101B30009D30F9009231A1228B31913190218B316E
:101B40009131CE218B312130F8009D30F900923156
:101B5000A1228B319131CE218B311930F8009D308B
:101B6000F9009231A1228B3191319C218B3191313D
:101B7000CE218B311130F8009D30F9009231A12235
:101B80008B31913190218B319131CE218B310930C4
:101B9000F8009D30F9009231A1228B319131CE2194
:101BA0008B310130F8009D30F9009231A1228B3148
:101BB00091319C218B319131CE218B31F930F8005C
:101BC0009C30F9009231A1228B31913190218B31DF
:101BD0009131CE218B31F130F8009C30F9009231F7
:101BE000A1228B319131CE218B31E930F8009C302C
:101BF000F9009231A1228B31913175218B319131D4
:101C0000CE218B31E130F8009C30F9009231A122D5
:101C10008B31913190218B319131CE218B31D93063
:101C2000F8009C30F9009231A1228B319131CE2104
:101C30008B31D130F8009C30F9009231A1228B31E8
:101C4000913196218B319131CE218B31C930F80001
:101C50009C30F9009231A1228B31913190218B314E
:101C60009131CE218B31C130F8009C30F900923196
:101C7000A1228B319131CE218B31B930F8009C30CB
:101C8000F9009231A1228B31913175218B31913143
:101C9000CE218B31B130F8009C30F9009231A12275
:101CA0008B31913190218B319131CE218B31A93003
:101CB000F8009C30F9009231A1228B319131CE2174
:101CC0008B31A130F8009C30F9009231A1228B3188
:101CD000913196218B319131CE218B319930F800A1
:101CE0009C30F9009231A1228B31913190218B31BE
:101CF0009131CE218B319130F8009C30F900923136
:101D0000A1228B319131CE218B318930F8009C306A
:101D1000F9009231A1228B31913196218B31913191
:101D2000CE218B318130F8009C30F9009231A12214
:101D30008B31913190218B319131CE218B317930A2
:101D4000F8009C30F9009231A1228B319131CE21E3
:101D50008B317130F8009C30F9009231A1228B3127
:101D600091319C218B319131CE218B316930F8003A
:101D70009C30F9009231A1228B31913190218B312D
:101D80009131CE218B316130F8009C30F9009231D5
:101D9000A1228B319131CE218B315930F8009C300A
:101DA000F9009231A1228B31913196218B31913101
:101DB000CE218B315130F8009C30F9009231A122B4
:101DC0008B31913190218B319131CE218B31493042
:101DD000F8009C30F9009231A1228B319131CE2153
:101DE0008B314130F8009C30F9009231A1228B31C7
:101DF00091319C218B319131CE218B313930F800DA
:101E00009C30F9009231A1228B31913190218B319C
:101E10009131CE218B313130F8009C30F900923174
:101E2000A1228B319131CE218B312930F8009C30A9
:101E3000F9009231A1228B3191319C218B3191316A
:101E4000CE218B312130F8009C30F9009231A12253
:101E50008B31913190218B319131CE218B311930E1
:101E6000F8009C30F9009231A1228B319131CE21C2
:101E70008B311130F8009C30F9009231A1228B3166
:101E800091319C218B319131CE218B310930F80079
:101E90009C30F9009231A1228B31913190218B310C
:101EA0009131CE218B310130F8009C30F900923114
:101EB000A1228B319131CE218B31F930F8009B304A
:101EC000F9009231A1228B3191319C218B319131DA
:101ED000CE218B31F130F8009B30F9009231A122F4
:101EE0008B31913190218B319131CE218B31E93081
:101EF000F8009B30F9009231A1228B319131CE2133
:101F00008B31E130F8009B30F9009231A1228B3106
:101F100091319C218B319131CE218B319231E22252
:101F20008B319231E2228B319231E2228B3192312C
:101F3000E2228B319231E2228B319231E2228B31DB
:101F40009231E2228B319231E2228B319231E222C4
:101F50008B319231E2228B319231E2228B319231FC
:101F6000E2228B319231E2228B319231E2228B31AB
:101F7000D930F8009B30F9009231A1228B31913198
:101F800090218B319131CE218B31D130F8009B30B3
:101F9000F9009231A1228B31913196218B3191310F
:101FA000CE218B31C930F8009B30F9009231A1224B
:101FB0008B31913190218B319131CE218B31C130D8
:101FC000F8009B30F9009231A1228B319131CE2162
:101FD0008B31B930F8009B30F9009231A1228B315E
:101FE000913196218B319131CE218B31B130F80076
:101FF0009B30F9009231A1228B3191319021080060
:1020000020340034203410340834003420340034B8
:1020100000342034103408340034203400342034A8
:102020002034103408340034203400342034003498
:102030001034083400342034003420340034203488
:102040000834003420340034203400342034103478
:102050000034203400342034003420341034083468
:102060002034003420340034203410340834003458
:102070000034203400342034103408340034203448
:102080002034003420341034083400342034043434
:102090000034203410340834003420340434043440
:1020A000203410340834003420340434043404342C
:1020B000103408340034203404340434043420341C
:1020C000083400342034043404340434203400341C
:1020D00000342034043404340434203400342034F4
:1020E00020340434043404342034003420340034E4
:1020F00004340434043420340034203400342034D4
:1021000004340434203400342034003420340834BF
:1021100004342034003420340034203408341034A3
:102120002034003420340034203408341034003497
:102130000034203400342034083410340034203487
:102140002034003420340834103400342034003477
:102150000034203408341034003420340034203467
:102160002034083410340034203400342034003457
:102170000834103400342034003420340034203447
:10218000103400342034003420340034203404343B
:102190000034203400342034003420340434043437
:1021A0002034003420340034203404340434043423
:1021B0000034203400342034043404340434203413
:1021C0002034003420340434043404342034003403
:1021D00000342034043404340434203400342034F3
:1021E00020340434043404342034003420340034E3
:1021F00004340434043420340034203400342034D3
:1022000004340434203400342034003420340834BE
:1022100004342034003420340034203408341034A2
:102220002034003420340034203408341034003496
:102230000034203400342034083410340034203486
:102240002034003420340834103400342034003476
:102250000034203408341034003420340034203466
:102260002034083410340034203400342034003456
:102270000834103400342034003420340034203446
:10228000103400342034003420340034203400343E
:10229000003420340034203400342034003400343E
:1022A000203400342034003420340034003400342E
:1022B000003420340034203400340034003400343E
:1022C000203400342034003400340034003400342E
:1022D000003420340034003400340034003400343E
:1022EA002000E001E101080022001D159D170800E9
:1022FA0004340034CE3415349131BE2124009614AE
:10230A0008009131BE212400161408009131BE2123
:10231A0024001615080004302000E0000030E10017
:10232A00080001302000E0000030E100080002301F
:10233A002000E0000030E100080003302000E00047
:10234A000030E1000800F2009131BE217208240039
:10235A00910008002000111EAF29720823009A007C
:10236A000800200095019701960118140B11950198
:10237A000800240016081F39031DBE29141D080071
:10238A00BE29200095019701960118140B11950199
:10239A000800A530F200EE30890BD129F20BD129C1
:1023AA00003208007E30F200F830890BDA29F20B8D
:1023BA00DA290032080068302100990023008E01D2
:1023CA0021008E0122000E130E118E110800033017
:1023DA00F300AC30F2001A30890BF129F20BF12923
:1023EA00F30BF129080021000D160D1728302400DF
:1023FA009500960109309200C03094000800F70059
:10240A0022000E1177089231C12292317608923158
:10241A00C12222000E15080021008E160E16003069
:10242A0023009C0019309B0090309D0024309E00B0
:10243A009E161E129D171E1508006A30210099006B
:10244A008B01C5309500C130200098008130990079
:10245A00103021008C00FF308E0020008C011030DB
:10246A0023008C0008002000B701AF30B8001130FB
:10247A00B9003530B5003508B6003408A70033086E
:10248A00A6003630B5003508A80037309531BE258C
:10249A000800A930F8009B30F9009231A12292314C
:1024AA009131752192319131D7219231A130F800C1
:1024BA009B30F9009231A1229231913196219231C9
:1024CA009131D7210800F3009131BE2192312400C5
:1024DA0096159131BE21923124001108F20072083A
:1024EA00F4009131BE219231730803197F2A240026
:1024FA009612812A240096161616740808002000DF
:10250A00B9003908B7003708BA00BB01BC01353039
:10251A00B7003708B8003408A7003308A6003830D7
:10252A00B7003708A8003A309531BE2520003A088E
:10253A0086008701810108002000A30108302302D8
:10254A00031808007908A1007808A00023082007CA
:10255A00840021080318210A85000008A200220825
:10256A00F6002308013E9231042292310130200004
:10257A00A0002008A307A32AF400F5010830750279
:10258A000318080022008E117408F2000730F23690
:10259A00890BCC2A72080139F300F30EF30DF30DFF
:1025AA000E087306BF3973068E000310F40D8E15DC
:1025BA000130F2007208F507C32A5930F8009E303C
:1025CA00F9009231A12292319131902192319131C7
:1025DA00CE2192315130F8009E30F9009231A12279
:1025EA0092319131CE2192314930F8009E30F90072
:1025FA009231A12292319131962192319131CE219B
:10260A00080020002008210403192E2BA501A50A81
:10261A00A11B192B0130A035A10D890B102B0130FC
:10262A00A4002408A5070D2B21082302031D1F2B34
:10263A0020082202031C252B2008A2022108A33B02
:10264A000130A136A00C890B262B0130A502031DEF
:10265A00192B2308A1002208A0000800F701F8019D
:10266A00720873040319622BF901F90AF31B472B49
:10267A000130F235F30D890B3E2B0130F600760856
:10268A00F9073B2B0130F735F80D890B482B7308F6
:10269A007502031D522B72087402031C592B72080F
:1026AA00F4027308F53B77140130F336F20C890B08
:1026BA005A2B0130F902031D472B7808F3007708DB
:1026CA00F20008009930F8009B30F9009231A122FB
:1026DA0093319131902193319131D72193319130B6
:1026EA00F8009B30F9009231A12293319131752182
:1026FA0093319131D72193318930F8009B30F90019
:10270A009231A12293319131902193319131D72184
:10271A0093318130F8009B30F9009231A122933134
:10272A009131962193319131D72108002000A300DD
:10273A002008F039A1002108A4002008A1000330D4
:10274A00A135FF3E031DA52B2135A2002208A500B5
:10275A00913186219331F20120002308883100202B
:10276A009331200024080C389131A821933120009C
:10277A00240808389131A8219331200025080C3803
:10278A009131A82193312000250808389131A821D8
:10279A009331200023089431A424933191318B2161
:1027AA0008002000A30020087039A1002108A40015
:1027BA002008A1000330A135FF3E031DE02B21357F
:1027CA00A2002208A500913186219331F20120004E
:1027DA002308883100209331200024088C38913155
:1027EA00A82193312000240888389131A8219331F7
:1027FA00200025080C389131A821933120002508A2
:10280A0008389131A8219331200023089431A42457
:10281A0093312000A1002108A00091318B210800EA
:10282A002000A200913186219431F2012000220871
:10283A008831002094313C309131A82194313830CC
:10284A009131A82194313C309131A821943138300A
:10285A009131A82194313C309131A82194313830FA
:10286A009131A82194312C309131A821943128300A
:10287A009131A82194310C309131A821943108303A
:10288A009131A8219431FC309131A8219431F8304A
:10289A009131A8219431200022089431A424943142
:1028AA002000A0002008A10091318B210800893066
:1028BA00F8009E30F9009231A12294319131902191
:1028CA0094319131CE2194318130F8009E30F90053
:1028DA009231A12294319131CE2194317930F8008C
:1028EA009E30F9009231A12294319131962194318E
:1028FA009131CE2194317130F8009E30F900923135
:10290A00A12294319131902194319131CE21943187
:10291A006930F8009E30F9009231A1229431913148
:10292A00CE2194316130F8009E30F9009231A12213
:10293A00943191319C2194319131CE210800F900D2
:10294A00913186219431F20179088831002094313D
:10295A00FA309131A8219431FE309131A821943175
:10296A00913181219431F201F20A790888310020EB
:10297A00943101309231682294318039031DBE2C82
:10298A000030923168229431F6007608F7007030F0
:10299A00F6007608F705913181219431F201790820
:1029AA00883100209431FA309131A8219431FE30D7
:1029BA009131A8219431913181219431F201F20AA5
:1029CA00790888310020943100309231682294319C
:1029DA00F6007608F800F80E0F30F8057708F600CA
:1029EA007608F80791318B21780808002000A500A5
:1029FA00913186219431F201200025088831002086
:102A0A0094312000A801A9012908803AA200803047
:102A1A002202031D122D2108280203184E2D200020
:102A2A0028082007A2002208860087010108F03939
:102A3A00A3002308A60028082007A200220886006F
:102A4A0087010108A3000330A335FF3E031D292D8A
:102A5A002335A4002408A70026080D389131A8219F
:102A6A0094312000260809389131A8219431200098
:102A7A0027080D389131A8219431200027080938F8
:102A8A009131A821943101302000A8070030A93DD6
:102A9A00092D200025089431A424943191318B21E9
:102AAA0008003830F8009030F9009231A1229531AF
:102ABA009131752195319131EC2195313030F80001
:102ACA009030F9009231A1229531913190219531BE
:102ADA009131EC2195312830F8009030F90092318B
:102AEA00A122953191319C2195319131EC21953179
:102AFA002030F8009030F9009231A12295319131BD
:102B0A00962195319131EC2195311830F8009030A9
:102B1A00F9009231A1229531913175219531913186
:102B2A00EC2195311030F8009030F9009231A12251
:102B3A0095319131902195319131EC2195310830BF
:102B4A00F8009030F9009231A12295319131752126
:102B5A0095319131EC2195310030F8009030F9002F
:102B6A009231A12295319131902195319131EC2107
:102B7A0008002000B20020002708AA002608A900A1
:102B8A00A60A0319A70A290884002A08850000084A
:102B9A00AB002B08B10031080319D82E25303106B5
:102BAA000319FE2D320A8600870116000104031953
:102BBA00EB2D3108A9002908F200320A86008701A4
:102BCA00413F8A00403F0A009531C02D200031085C
:102BDA00A9003208860087010108860087012908B2
:102BEA0081000130A900320886008701290881077F
:102BFA00C02DAD012708AA002608A900A60A0319B4
:102C0A00A70A290884002A0885000008B100003AAA
:102C1A000319D82E643A0319162E0D3A0319162EE3
:102C2A00C02D28088600870101088400850102302A
:102C3A008107003FAF00013FB000B01F2D2E0330C7
:102C4A00A9002908AD04AF09B009AF0A0319B00AEF
:102C5A00B101B10A053031060319522E3108A90013
:102C6A00AA01A935AA0D51302907840098302A3DB6
:102C7A008500003FAB00013FAC002C083002031D69
:102C8A00482E2B082F02031C522E0130A9002908B6
:102C9A00B10705303106031D332E2D0803390319F8
:102CAA007C2E320A860087011600010403196A2E57
:102CBA002D30A9002908F200320A86008701413F17
:102CCA008A00403F0A0096317C2E2D302000A90050
:102CDA0032088600870101088600870129088100D9
:102CEA000130A900320886008701290881072000DF
:102CFA003108A9002908AE00FF302000A9002908E0
:102D0A00AE072E0A0319C02D0A30A0000030A10018
:102D1A002E08A900AA01A935AA0D51302907840055
:102D2A0098302A3D8500003FF200013FF300300849
:102D3A00F5002F08F40093313323953173082000EE
:102D4A00A3007208A20093310623953120002008BF
:102D5A00303EAB002B08B100320A8600870116000C
:102D6A0001040319C52E3108A9002908F200320A04
:102D7A0086008701413F8A00403F0A009631812E32
:102D8A0020003108A9003208860087010108860060
:102D9A008701290881000130A900320886008701CD
:102DAA0029088107812EA601A7010800F930200011
:102DBA00B3009F30B4009231382296310030F800C7
:102DCA009830F9009231A12296319131EC21963155
:102DDA006830F8009130F9009231A1229631913190
:102DEA00EC2196316030F8009130F9009231A1223D
:102DFA0096319131EC2196315830F8009130F90032
:102E0A009231A12296319131EC2196315030F8005D
:102E1A009130F9009231A12296319131EC2196310B
:102E2A004830F8009130F9009231A122963191315F
:102E3A00EC2196314030F8009130F9009231A1220C
:102E4A0096319131EC2196313830F8009130F90001
:102E5A009231A12296319131752196319131EC212D
:102E6A0096313030F8009130F9009231A122963132
:102E7A009131902196319131EC2196312830F80028
:102E8A009130F9009231A122963191317521963112
:102E9A009131EC2196312030F8009130F9009231CD
:102EAA00A12296319131902196319131EC219631BE
:102EBA001830F8009130F9009231A12296319131FF
:102ECA00752196319131EC2196311030F80091300C
:102EDA00F9009231A12296319131902196319131A6
:102EEA00EC2196310830F8009130F9009231A12294
:102EFA0096319131962196319131EC2196310030FB
:102F0A00F8009130F9009231A122963191319C2139
:102F1A0096319131EC219631F830F8009030F90071
:102F2A009231A12296319131752196319131EC215C
:102F3A009631F030F8009030F9009231A1229631A2
:102F4A009131902196319131EC219631E830F80097
:102F5A009030F9009231A122963191317521963142
:102F6A009131EC219631E030F8009030F90092313D
:102F7A00A12296319131902196319131EC219631ED
:102F8A00D830F8009030F9009231A122963191316F
:102F9A00752196319131EC219631D030F80090307C
:102FAA00F9009231A12296319131A22196319131C3
:102FBA00EC219631C830F8009030F9009231A12204
:102FCA0096319131EC219631C030F8009030F900F9
:102FDA009231A12296319131EC219631B830F80024
:102FEA009030F9009231A1229631913175219631B2
:102FFA009131EC21080020340034003400340034CC
:10300A00003400340034203443346C34693463347B
:10301A006B34203474346F34203453347434613450
:10302A0072347434203400342034453461347334B7
:10303A00793420344D34653464342034483461346E
:10304A007234643420340034203420342034203460
:10305A002034203420342034203420342D342D34AC
:10306A002D342D340034203420342034203450348C
:10307A004934433420344834653472346F3400346C
:10308A0020342034203420342034523465346134DE
:10309A00643479343F340034013400340A3400345F
:1030AA0064340034E83403341034273420342034B0
:1030BA00203420342034203447346F34213400340F
:1030CA002034203420342034203420342D342D343C
:1030DA002D340034533463346F34723465343A34E3
:1030EA002034253464340034083404340834103469
:1030FA0020341034083404340034003400340034EA
:10310A000034003400340034003400340034003415
:10311A0000340034003420340034003400340034E5
:10312A0000340034203400340034003400340034D5
:10313A0000342034003410340034003400340034B5
:10314A002034003410340034003400340034203485
:10315A000034103400341034003400342034003485
:10316A001034003410340034003420340034103465
:10317A000034103400340034203400341034003465
:10318A001034003400340034003410340034103465
:10319A000034003400340034103400341034003465
:1031AA000034003400340034003410340034003465
:1031BA00003400340034083410340034003400344D
:1031CA00003400340834003400340034003400344D
:1031DA000034083400340834003400340034003435
:1031EA00083400340834003400340034003408341D
:1031FA000034083400340034003400340834003415
:10320A0008340034003400340034083400340834FC
:10321A0000340034003404340834003408340034F0
:10322A0000340034043404340834003408340034DC
:10323A0000340434043400340034083400340034D4
:10324A0004340434003400340834003400340434C0
:10325A0004340034003410340034003404340434A8
:10326A000034003410340834003404340434003494
:10327A000034103408340434043404340034003480
:10328A00103408340434083404340034003410345C
:10329A000834043408341034003400341034083448
:1032AA00043408341034203400341034083404341C
:1032BA0008341034203410341034083404340834F8
:1032CA0010342034103408340434083410342034D0
:1032DA0010340834043400340834103420341034E0
:1032EA0008340434003400341034203410340834E0
:1032FA0004340034003404342034103408340434E0
:10330A0000340034043400341034083404340034F3
:10331A0000340434003408340834043400340034EB
:10332A0004340034083400340434003400340434DF
:10333A0000340834003408340034003404340034CF
:10334A0008340034083400340034043400340834B7
:10335A00003408340034203404340034083400348F
:10336A00083400342034003400340834003408347B
:10337A000034203400341034083400340834003463
:10338A00203400341034003400340834003420343B
:10339A00003410340034203408340034203400342B
:1033AA001034003420340034003420340034103413
:1033BA000034203400341034203400341034003403
:1033CA0020340034103400340034103400342034F3
:1033DA0000341034003420341034003420340034E3
:1033EA0010340034203400340034203400341034D3
:1033FA0000342034003400342034003410340034D3
:10340A0020340034003408340034103400342034BA
:10341A0000340034083400341034003420340034CA
:10342A0000340834003408340034203400340034C2
:10343A0008340034083400342034003400340834AA
:10344A0000340834003420340034003408340034A2
:10345A00083400342034003400340834003408348A
:10346A000034203400341034083400340834003472
:10347A00203400341034003400340834003420344A
:10348A00003410340034203408340034203400343A
:10349A001034003420340034003420340034103422
:1034AA000034203400341034203400341034003412
:1034BA002034003410340034003410340034203402
:1034CA0000341034003420341034003420340034F2
:1034DA0010340034203400340034203400341034E2
:1034EA0000342034003400342034003410340034E2
:1034FA0020340034003404340034103400342034CE
:10350A0000340034043400341034003420340034DD
:10351A0000340434003408340034203400340034D5
:10352A0004340034083400342034003400340434C1
:10353A0000340834003408340034003404340034CD
:10354A0008340034083400340034043400340834B5
:10355A00003408340034203404340034083400348D
:10356A000834003420341034003408340034083469
:10357A000034203410342034083400340834003441
:10358A002034103420341034003408340034203409
:10359A0010342034103420340834003420341034E9
:1035AA0020341034203410340034203410342034C1
:1035BA0010342034103420342034103420341034A1
:1035CA0020341034203400341034203410342034A1
:1035DA0010342034003400342034103420341034B1
:1035EA0020340034003408341034203410342034A9
:1035FA0000340034083400342034103420340034C9
:10360A0000340834003408341034203400340034D0
:10361A0008340034083400342034003400340834C8
:10362A0000340834003420340034003408340034C0
:10363A000834003420341034003408340034083498
:10364A000034203410342034083400340834003470
:10365A002034103420341034003408340034203438
:10366A001034203410342034083400342034103418
:10367A0020341034203410340034203410342034F0
:10368A0010342034103420342034103420341034D0
:10369A0020341034203400341034203410342034D0
:1036AA0010342034003400342034103420341034E0
:1036BA0020340034003400341034203410342034E0
:1036CA000034003400340034203410342034003400
:1036DA000034003400340034103420340034003410
:1036EA000034003400340034203400340034003410
:1036FA0000340034003400340034203400341034F0
:10370A0000342034003410342034003410340034AF
:10371A00203400341034003400341034003420349F
:10372A00003410340034203410340034203400348F
:10373A00103400342034003420341034203410344F
:10374A00203410342034103410342034103420340F
:10375A00103420341034203400340034003400345F
:10376A0000340034003400340034003400340034AF
:10377A00003400340034103400340034003400348F
:10378A00003400341034003400340034003400347F
:10379A00003410340034003400340034003400346F
:1037AA00103400340034103400340034003410343F
:1037BA00003400341034003400341034003400343F
:1037CA001034003400340834103400340034103417
:1037DA000034003408340034003400341034003427
:1037EA000034083400340034003410340034003417
:1037FA0008340034003408341034003400340834F7
:10380A0000340034083400340034003408340034FE
:10381A0000340834003400340034083400340034EE
:10382A0008340034003408340834003400340834CE
:10383A0000340034083400340034003408340034CE
:10384A0000340834003400340034083400340034BE
:10385A00083400340034083408340034003408349E
:10386A00003400340834003400340034083400349E
:10387A00003408340034003400340834003400348E
:10388A00083400340034083408340034003408346E
:10389A00003400340834003400340034083400346E
:1038AA00003408340034003400340834003400345E
:1038BA000834003400341034083400340034083436
:1038CA000034003410340034003400340834003436
:1038DA000034103400340034003408340034003426
:1038EA0010340034003408340834003400341034FE
:1038FA000034003408340034003400341034003406
:10390A0000340834003400340034103400340034F5
:10391A0008340034003410341034003400340834CD
:10392A0000340034103400340034003408340034D5
:10393A0000341034003400340034083400340034C5
:10394A001034003400341034083400340034103495
:10395A00003400341034003400340034103400349D
:10396A00003410340034003400341034003400348D
:10397A00103400340034203410340034003410344D
:10398A00003400342034003400340034103400345D
:10399A00003420340034003400341034003400344D
:1039AA00203400340034103410340034003420340D
:1039BA00003400341034003400340034203400342D
:1039CA00003410340034003400342034003400341D
:1039DA0010340034003420342034003400341034DD
:1039EA0000340034203400340034003410340034FD
:1039FA0000342034003400340034103400340034ED
:103A0A0020340034003408341034003400342034B4
:103A1A0000340034083400340034003420340034D4
:103A2A0000340834003400340034203400340034C4
:103A3A0008340034003408342034003400340834A4
:103A4A0000340034083400340034003408340034BC
:103A5A0000340834003400340034083400340034AC
:103A6A000834003400342034083400340034083474
:103A7A000034003420340034003400340834003474
:103A8A000034203400340034003408340034003464
:103A9A00203400340034083408340034003420342C
:103AAA000034003408340034003400342034003444
:103ABA000034083400340034003420340034003434
:103ACA00083400340034103420340034003408340C
:103ADA000034003410340034003400340834003424
:103AEA000034103400340034003408340034003414
:103AFA0010340034003410340834003400341034E4
:103B0A0000340034103400340034003410340034EB
:103B1A0000341034003400340034103400340034DB
:103B2A00103400340034203410340034003410349B
:103B3A0000340034203400340034003410340034AB
:103B4A00003420340034003400341034003400349B
:103B5A00203400340034103410340034003420345B
:103B6A00003400341034003400340034203400347B
:103B7A00003410340034003400342034003400346B
:103B8A00103400340034203420340034003410342B
:103B9A00003400342034003400340034103400344B
:103BAA00003420340034003400341034003400343B
:103BBA002034003400340834103400340034203403
:103BCA000034003408340034003400342034003423
:103BDA000034083400340034003420340034003413
:103BEA0008340034003408342034003400340834F3
:103BFA00003400340834003400340034083400340B
:103C0A0000340834003400340034083400340034FA
:103C1A0008340034003420340834003400340834C2
:103C2A0000340034203400340034003408340034C2
:103C3A0000342034003400340034083400340034B2
:103C4A002034003400340034083400340034203482
:103C5A00003400340034003400340034203400349A
:103C6A00003400340034003400342034003400348A
:103C7A00003400340034003420340034003400347A
:103C8A00003400340034003400341034003400347A
:103C9A00103400340034103410340034003410343A
:103CAA00003400341034003400340034103400344A
:103CBA000034103400340034003408340034003442
:103CCA00103400340034083408340034003410341A
:103CDA000034003408340034003400341034003422
:103CEA000034083400340034003410340034003412
:103CFA0008340034003410341034003400340834EA
:103D0A0000340034103400340034003408340034F1
:103D1A0000341034003400340034083400340034E1
:103D2A0008340034003408340834003400340834C9
:103D3A0000340034083400340034003408340034C9
:103D4A0000340834003400340034083400340034B9
:103D5A0008340034003400340834003400340834A1
:103D6A000034003400340834003400340834003499
:103D7A000034003408340034003408340034003489
:103D8A000034083400340034083400340034003479
:103D9A000834003400340034003400340034083469
:103DAA000034003400340834003400340834003459
:103DBA000034003408340034003408340034003449
:103DCA000034083400340034083400340034003439
:103DDA000834003400340834003400340034083421
:103DEA000034003408340034003400340834003419
:103DFA000034083400340034003408340034003409
:103E0A0008340034003410340834003400340834E0
:103E1A0000340034103400340034003408340034E0
:103E2A0000341034003400340034083400340034D0
:103E3A0010340034003408340834003400341034A8
:103E4A0000340034083400340034003410340034B0
:103E5A0000340834003400340034103400340034A0
:103E6A000834003400340834103400340034083480
:103E7A000034003408340034003400340834003488
:103E8A000034083400340034003408340034003478
:103E9A000834003400340834083400340034083458
:103EAA000034003408340034003400340834003458
:103EBA000034083400340034003408340034003448
:103ECA000834003400340034083400340034083430
:103EDA000034003400340834003400340834003428
:103EEA000034003408340034003408340034003418
:103EFA000034083400340034083400340034003408
:103F0A0008340034003400340034003400340834F7
:103F1A0000340034003408340034003408340034E7
:103F2A0000340034083400340034083400340034D7
:103F3A0000340834003400340834003400340034C7
:103F4A0008340034003408340034003400340834AF
:103F5A0000340034083400340034003408340034A7
:103F6A00003408340034003400340034003400349F
:103F7A000034003400340034003400340034003497
:103F8A000034003400342034003400340034003467
:103F9A000034003420340034003400340034003457
:103FAA000034203400342034003400340034003427
:103FBA0020340034203410340034003400342034E7
:103FCA0000342034103408340034003420340034EF
:103FDA0020341034083400340034203400342034BF
:103FEA00103408340034203431340034323400348C
:043FFA003334003428
:020000040001F9
:04000E00E4CFFFFE3E
:00000001FF
